:10116B00120003120C241211161211C21211D312F7
:0A117B001185120D98120DE080FBA3
:100EAB00011800011900011D0A011C0A011B0A018E
:020EBB001A0A11
:10118500D281D284C280C282C283C285D2A4D2A5B2
:05119500D2A6D2A72242
:10096100E51E24FE601C14602B14603424037040C7
:10097100C280D282D283C285D2A4D2A5C2A6D2A776
:10098100802ED280C282C283D285D2A4D2A5D2A621
:10099100C2A7801CD280C282D283C285C2A4800A2F
:1009A100C280C282C283C285D2A4D2A5D2A6D2A756
:1009B10030B32520B70620A103751E0420B70630E9
:1009C100A103751E0130B70620A103751E0230B7C1
:0C09D1000A30A107751E0322751E0422C7
:100ACF00E51E24FE601C14602B1460342403704058
:100ADF00C280D282D283C285D2A4D2A5C2A6D2A707
:100AEF00802ED280C282C283D285D2A4D2A5D2A6B2
:100AFF00C2A7801CD280C282D283C285C2A4800AC0
:100B0F00C280C282C283C285D2A4D2A5D2A6D2A7E6
:100B1F0020A00620A303751E0320A00630A3037593
:100B2F001E0230A00620A303751E0130A00630A3BD
:050B3F0003751E0422F5
:100B4400E51E24FE601F14602E14603714604224D6
:100B540004704EC280D282D283C285D2A4D2A5C2EE
:100B6400A6D2A7803CD280C282C283D285D2A4D22C
:100B7400A5D2A6C2A7802AD280C282D283C285C24D
:100B8400A4800AC280C282C283C285D2A4D2A580B4
:100B94000CC280D282C283D285D2A4C2A5D2A6D2EC
:100BA400A720A00620A30320B304751E0422751EEB
:020BB40003221A
:100DE000E51965186017E5196010C280C282C283D8
:100DF000C285D2A4D2A5D2A6D2A7851819E51824F7
:100E0000FE60131460131460131460131460132431
:100E1000057012020961020ACF020B440210180287
:060E200000001200002298
:080F9D008F508E4F8D4E8C4DDC
:100FA500784D74FF1205CFEC4D4E4F6013E4FAFBFC
:100FB500C3EB941AEA940450E70BBB00010A80F0D6
:010FC5002209
:0B0EBD00024B000002480000014A0048
:080FC6008F548E538D528C51A3
:100FCE00785174FF1205CFEC4D4E4F6013E4FAFBCF
:100FDE00C3EB941AEA940450E70BBB00010A80F0AD
:010FEE0022E0
:1011C2005389F0438901438EC043B802D28CD2A91D
:0111D20022FA
:1011D300D2AB53890F438910758DA9758B9AD28E23
:0111E30022E9
:03000B00020E26BC
:100E2600C0E0C0F0C083C082C0D075D000C000C092
:100E360001C002C003C004C005C006C007300105DA
:100E4600120FEF8003120026D007D006D005D0047B
:100E5600D003D002D001D000D0D0D082D083D0F041
:030E6600D0E032A7
:03001B00020A577F
:090A5700C0E0C0D075D000C0065B
:100A6000054CE54C7002054BB4E80CE54BB40307AC
:100A7000E55660037556000549E549AE4870020524
:100A80004814C394E8EE940340107548007549007B
:100A9000E5566004B2878002D287758DF7758B5C4E
:100AA000054AE54AD3951D5004D2818002C281E5F2
:100AB0004AD3951C5004D2848002C284E54AB40A09
:080AC00007754A00C281C284DF
:070AC800D006D0D0D0E032CF
:030EC800015600D0
:10111600438780759850759C70438E04438E0143B7
:0D1126008E10D2ACD2AFD299C2A8C2AA22BC
:0E11E400C2ACC2998F993099FDD299D2AC223B
:10119A00ED6011120458FF1211E4740129F9E43ABE
:0511AA00FA1D80EC229B
:100243009000C8E0FF600302030EA3E0B40900407E
:100253000302045790025EF82828730202B70202D1
:10026300790202810202890202A00202C90202DBB0
:100273000202E30202F7851B1D851A1C804E851BB3
:100283001D851A1C8074851B1D851A1CD280C28291
:10029300C283D285D2A4D2A5D2A6C2A722851B1D12
:1002A300851A1CC280D282D283C285D2A4D2A5C2AF
:1002B300A6D2A722851B1D851A1CC280C282C283B7
:1002C300C285D2A4802A751D04751C0AD280C282FD
:1002D300D283C285C2A48018751D04751C0A801AB6
:1002E300751D0A751C04D280C282D283C285C2A442
:1002F300D2A58012751D0A751C04C280D282C283E6
:10030300D285D2A4C2A5D2A6D2A722EF64016003EC
:100313000203AE9000CAE0FFD394B4400302045733
:100323009000C9E014B40800400302045790033E50
:1003330075F003A4C58325F0C58373020356020336
:100343005E02036902037402037F02038A020395B8
:100353000203A0EFFD7C007F01804B9000CAE0FD0B
:100363007C007F0280409000CAE0FD7C007F038018
:10037300359000CAE0FD7C007F04802A9000CAE02B
:10038300FD7C007F05801F9000CAE0FD7C007F0696
:1003930080149000CAE0FD7C007F0780099000CAAA
:1003A300E0FD7C007F087E00020F739000C8E0FF31
:1003B300B402299000CAE0FED3940A400302045712
:1003C3009000C9E024FE600B0460030204578E1DF5
:1003D3008E1B229000CAE0F51CF51A22EFB4040D1F
:1003E3009000C9E0B4010302000602000E9000C8A9
:1003F300E0FF64137028A3E0601E24FE600E146007
:100403000F1460102403701275180122751802224C
:1004130075180322751804228000E4F51822EF648E
:10042300327027FF7E641210F4752C01AF2C7E000E
:10043300121133AD07E4252CFFE43464FE1210D00F
:10044300052CE52CD3940840E3229000C8E0B43394
:0404530003120D98EB
:010457002282
:030023000209DDF2
:1009DD00C0E0C0F0C083C082C0D075D000C000C0E0
:0D09ED0001C002C003C004C005C006C00761
:1009FA0030983DC298E5567010E599F470347556F2
:100A0A0001F54BF54CF5558029E599B4FF1075565B
:100A1A0000E555B40303120243755500801474C8E7
:100A2A002555F582E43400F583E599F005558002F1
:020A3A00C2995F
:100A3C00D007D006D005D004D003D002D001D0000E
:0B0A4C00D0D0D082D083D0F0D0E032B8
:100C2400C2ACE4F52FF530B2A4120F16B2A5120F20
:100C340016B2A6120F16B2A7120F16B287120F160B
:100C4400B286120F160530E5307002052FC39412D8
:100C5400E52F940040D1E4F52FF530B2A4B2A5B24B
:100C6400A6B2A7B287B2867FE87E03120F1A0530B8
:100C7400E5307002052FC3940FE52F940040DCD2B9
:050C8400A5D2A7D286F5
:010C89002248
:080F16007F5E7E017D007C007E
:080F1E008F348E338D328C31CB
:100F2600783174FF1205CFEC4D4E4F6013E4FAFB97
:100F3600C3EB941AEA940450E70BBB00010A80F055
:010F46002288
:100ECB001008005A002D00430043005A005A0040FE
:020EDB000050C5
:100F7300D3EF9408EE94005020C3EE9400401AD3AC
:100F8300ED94A0EC94005011C3EC9400400BEF25BA
:0A0F9300E02406F8A60408A60522D3
:100D9800E4F52F753001E42530FFE43464FE1210C9
:100DA800ACBFFF02052F0530E530C3940940E7E5E5
:100DB8002F64086022753001E42530FFE43464FEB6
:100DC8001210ACEFFD7C00AF307E00120F730530BF
:070DD800E530C3940940E17E
:010DDF0022F1
:10113300D3EF9408EE94005012C3EF9401EE9400A1
:0C1143004009EF25E02406F808E6FF2232
:1011AF00D2B5E4FFFE0FBF00010EEF64964E70F54F
:0211BF00C2B5B7
:0111C100220B
:10084500E4F532F531F530F52F1211AFE4F58DF5FC
:100855008BE58DC394FA500330B4F6E58DD394FA45
:10086500506DE4F58DF58B20B4FDAF8DE48F32F539
:1008750031F530F52FAE31AD30AC2FFB7A01F9F8FB
:100885001204B08F328E318D308C2FAF8BE4FCFD8E
:10089500FEE5322FF532EE3531F531ED3530F530F7
:1008A500EC352FF52FAF32AE31AD30FCE47B11FACC
:1008B500F9F81204B08F328E318D308C2FE47B66BF
:0F08C5007A56F9F812053B8F328E318D308C2F19
:0108D4002201
:10101800120845EFC3940A500CC280C282C283C230
:1010280085D2A4800AD280C282D283C285C2A4D2C9
:06103800A5D2A6D2A722FA
:10103E007FFF1211E47F031211E4E4FF1211E41298
:10104E0008451211E47FFF1211E47FE87E037D0054
:05105E007C00020FC63A
:100C8A00C3BFB8F6B4B4BFCDB6BCD3A6B8C3D3B548
:100C9A00D3D0D2BBCCA8BBFAC6F7C8CB7777772E0E
:100CAA00776966692D726F626F74732E636F6DD088
:100CBA00A152BFC6BCBCBBB6D3ADC4FA0080818208
:100CCA008384858687909192939495969788898A4A
:0D0CDA008B8C8D8E8F98999A9B9C9D9E9F70
:04108800C454F0FF5D
:10108C00E4FEC2A3EFA806088002C333D8FC30E705
:0F109C0004D2A08002C2A0D2A3C2A30EBE08E35A
:0110AB002222
:100E690075F008E53CA4253DF582E435F0F583E508
:0E0E79008224C7F582E583340CF583E493FFF1
:100E87008F1FD2A17F057E007D007C00120FC67FD9
:100E9700F812108CE51F54F0FF12108CE51F12108A
:040EA70088C2A1223A
:080F4700AB3EA940120458FF63
:100F4F008F59D2A17F057E007D007C00120FC67FD6
:100F5F00FA12108CE55954F0FF12108CE55912104B
:040F6F0088C2A12271
:0A0CE7008F3C8D3D8B3E8A3F894013
:100CF100E4F5417F30120E87120E69AB3EAA3FA97F
:100D010040120458603AE53DB40805E4F53D053C60
:100D1100E53CB40403E4F53C120E69AA3F120F4707
:100D210074012540F540E4353FF53FFA120F477451
:100D3100012540F540E4353FF53F053D054180BBC8
:010D4100228F
:0A0BB6008F428D438B448A45894627
:100BC000E4F5477F30120E8775F008E542A425430F
:100BD000120E71E5476420604AE543B40805E4F568
:100BE000430542E542B40403E4F54275F008E542EA
:100BF000A42543120E71AB44AA45A946120F4B74AB
:100C0000012546F546E43545F545AB44FAA94612BB
:100C10000F4B74012546F546E43545F5450543057A
:030C20004780B05A
:010C230022AE
:060D42008B358A3689376B
:100D4800E4F538F5397F34120E877F36120E87E4C2
:100D5800F53AE53A4480FF120E877F80120E87E449
:100D6800F53BAB35AA36A937853982853883120415
:100D780071FF120F4F0539E53970020538053BE55B
:0F0D88003BC3942040DC053AE53AC3942040C3B6
:010D97002239
:101063007F30120E877F03120E877F0C120E877F4D
:1010730001120E877F06120E877BFF7A0C798AE4B2
:05108300FDFF020CE777
:10114F007F30120E877F80120E87E4F55A7F2012B0
:0B115F000F4F055AE55AC3944040F2C0
:01116A002262
:100EE1007F34120E877F36120E87E4F557E557449B
:100EF10080FF120E877F80120E87E4F558E4FF12FF
:100F01000F4F0558E558C3942040F20557E557C3E4
:040F1100942040D90F
:010F150022B9
:03000300C2A22274
:03000600D2A22261
:03000E00C2A22269
:030EDD00015B00B6
:10002600E55BB410004003020238900037F8282838
:10003600730200670200850200A20200C00200DD12
:100046000200FB020118020136020153020171028D
:10005600018E0201AC0201C80201E50202010202A0
:100066001EAE08AF097C007DF512049EC374CD9FB9
:10007600FB74D49EF58CAF038F8AD290020238AE01
:1000860008AF097C007DF512049EEF2433FBEE34A5
:1000960053F58CAF038F8AC290020238AE0AAF0BBB
:1000A6007C007DF512049EC374CD9FFB74D49EF52F
:1000B6008CAF038F8AD291020238AE0AAF0B7C0056
:1000C6007DF512049EEF2433FBEE3453F58CAF031B
:1000D6008F8AC291020238AE0CAF0D7C007DF512FC
:1000E600049EC374CD9FFB74D49EF58CAF038F8A98
:1000F600D292020238AE0CAF0D7C007DF512049E42
:10010600EF2433FBEE3453F58CAF038F8AC2920291
:100116000238AE0EAF0F7C007DF512049EC374CD7F
:100126009FFB74D49EF58CAF038F8AD2930202385C
:10013600AE0EAF0F7C007DF512049EEF2433FBEE6E
:100146003453F58CAF038F8AC293020238AE10AFD8
:10015600117C007DF512049EC374CD9FFB74D49E62
:10016600F58CAF038F8AD294020238AE10AF117CA1
:10017600007DF512049EEF2433FBEE3453F58CAF6D
:10018600038F8AC294020238AE12AF137C007DF54B
:1001960012049EC374CD9FFB74D49EF58CAF038F5F
:1001A6008AD295020238AE12AF137C007DF5120496
:1001B6009EEF2433FBEE3453F58CAF038F8AC29542
:1001C6008070AE14AF157C007DF512049EC374CD0D
:1001D6009FFB74D49EF58CAF038F8AD2968053AE64
:1001E60014AF157C007DF512049EEF2433FBEE342C
:1001F60053F58CAF038F8AC2968037AE16AF177C45
:10020600007DF512049EC374CD9FFB74D49EF58CBD
:10021600AF038F8AD297801AAE16AF177C007DF592
:1002260012049EEF2433FBEE3453F58CAF038F8A12
:0C023600C297055BE55BB41003E4F55BC8
:010242002299
:1005ED00D2A4D2A5D2A6D2A7D287D286C200C2A249
:1005FD00C2A4D2A5E4F529F52AF52BD2B220B2FD7D
:10060D00D201538EBFE4F58DF58B758CA9758A9A41
:10061D00C3E52B94C8E52A94005056E4F58DF58B6F
:10062D0030B2FDAF29052974002FF582E43400F5B1
:10063D0083E58BF0AF29052974002FF582E4340092
:10064D00F583E58DF0E4F58DF58B20B2FDAF290531
:10065D002974002FF582E43400F583E58BF0AF2982
:10066D00052974002FF582E43400F583E58DF080C3
:10067D009FE4F529E529C394C840030207287401B6
:10068D002529F582E43400F583E0FE74002529F573
:10069D0082E43400F583E07C002400FFEC3ECF249F
:1006AD004CCF34FF7521008F22F524752300740083
:1006BD002529F582E43400F583EFF074012529F541
:1006CD0082E43400F583E524F074032529F582E4F2
:1006DD003400F583E0FE74022529F582E43400F53B
:1006ED0083E02400FFEC3ECF248CCF340075210035
:1006FD008F22F52475230074022529F582E4340038
:10070D00F583EFF074032529F582E43400F583E5D4
:10071D0024F074042529F529020681E52575F00AD2
:10072D00A47C002526FFEF75280025E0F527AF28CE
:10073D00FE1210F4E4F5297E00E5282529FFEE359B
:10074D0027FE74002529F582E43400F583E0FD12BF
:10075D0010D00529E529C394C840DCD2A4C2A5C296
:05076D0001438E402253
:10077200D2A7C287D286D201538EBFD200E5257599
:10078200F00AA47C002526FFEF75280025E0F52756
:10079200E4F5297E00E5282529FFEE3527FE121013
:1007A200AC74002529F582E43400F583EFF00529C5
:1007B200E529C394C840DC758CFF758A05E4F529E8
:1007C200F52AF52BC3E52B9460E52A943B5068E4A7
:1007D200F58DF58B74002529F582E43400F583E06C
:1007E200FFE58BC39F401374012529F582E4340091
:1007F200F583E0FFE58DC39F5004D20280D6052920
:100802000529E4F58DF58B74002529F582E4340081
:10081200F583E0FFE58BC39F401374012529F58220
:10082200E43400F583E0FFE58DC39F5004C20280EB
:10083200D605290529808DC201438E40C2A7D287E1
:03084200C2862249
:100FEF0020000F758CA9758A9A052BE52B701905B2
:100FFF002A22758CFF758A05052BE52B7002052AB1
:09100F00300203B2A222C2A222A7
:1010AC00AD07AC068CC3EDF5C453C5F843C501536D
:1010BC00C71843C70243C78075C65A75C6A553C720
:0410CC007FAFC2220E
:1010D000AB07AA068AC3EBF5C453C5F843C5028D16
:1010E000C253C71843C70243C78075C65A75C6A501
:0410F00053C77F2241
:1010F400AD07AC068CC3EDF5C453C5F843C5035323
:10110400C71843C70143C78075C65A75C6A553C7D8
:021114007F2238
:030000000208D51E
:0C08D500787FE4F6D8FD75815B02091CF9
:10045800BB010689828A83E0225002E722BBFE02A2
:09046800E32289828A83E49322D5
:10047100BB010CE58229F582E5833AF583E0225040
:1004810006E92582F8E622BBFE06E92582F8E2228A
:0D049100E58229F582E5833AF583E49322A4
:10049E00EF8DF0A4A8F0CF8CF0A428CE8DF0A42E72
:0204AE00FE222C
:1004B000E88FF0A4CC8BF0A42CFCE98EF0A42CFCEB
:1004C0008AF0EDA42CFCEA8EF0A4CDA8F08BF0A469
:1004D0002DCC3825F0FDE98FF0A42CCD35F0FCEBC8
:1004E0008EF0A4FEA9F0EB8FF0A4CFC5F02ECD398D
:0F04F000FEE43CFCEAA42DCE35F0FDE43CFC22FA
:1004FF0075F008758200EF2FFFEE33FECD33CDCCB4
:10050F0033CCC58233C5829BED9AEC99E582984036
:10051F000CF582EE9BFEED9AFDEC99FC0FD5F0D613
:10052F00E4CEFBE4CDFAE4CCF9A88222B800C1B93D
:10053F000059BA002DEC8BF084CFCECDFCE5F0CB7B
:10054F00F97818EF2FFFEE33FEED33FDEC33FCEBB4
:10055F0033FB10D703994004EB99FB0FD8E5E4F96F
:10056F00FA227818EF2FFFEE33FEED33FDEC33FC5C
:10057F00C933C910D7059BE99A4007EC9BFCE99A50
:10058F00F90FD8E0E4C9FAE4CCFB2275F010EF2F95
:10059F00FFEE33FEED33FDCC33CCC833C810D70795
:1005AF009BEC9AE899400AED9BFDEC9AFCE899F8D0
:0E05BF000FD5F0DAE4CDFBE4CCFAE4C8F92263
:1005CD007401FF3395E0FEFDFC080808E6CF2FF619
:1005DD0018E6CE3EF618E6CD3DF618E6CC3CF622F2
:1008E10002116BE493A3F8E493A34003F68001F2B1
:1008F10008DFF48029E493A3F85407240CC8C33318
:10090100C4540F4420C8834004F456800146F6DFE6
:10091100E4800B0102040810204080900EABE47EBD
:10092100019360BCA3FF543F30E509541FFEE493DB
:10093100A360010ECF54C025E060A840B8E493A3A2
:10094100FAE493A3F8E493A3C8C582C8CAC583CACD
:10095100F0A3C8C582C8CAC583CADFE9DEE780BE85
:010EE0000011
:00000001FF
